:100000000C9463010C9480010C949B010C9480016E
:100010000C9480010C9480010C9480010C9480015C
:100020000C9480010C9480010C94DC170C948001DA
:100030000C9480010C9480010C9480010C9480013C
:100040000C9480010C9480010C9480010C9480012C
:100050000C948001167C1E001F002000210022004D
:10006000230024002500260027002D002E002A0052
:100070004C002B0014001A000800150017001C008B
:1000800018000C00120013002F00300031004B004C
:10009000215204001600070009000A000B000D00A1
:1000A0000E000F0033003400000028004E00E10075
:1000B00000001D001B0006001900050011001000C3
:1000C000360037003800E50052005700E000E3003A
:1000D000E2000000000000002C0000000000E6002C
:1000E0002152E400500051004F0035003A003B001F
:1000F0003C003D003E003F00400041004200430004
:10010000440045004C0046000100AC00AE00AB00CE
:10011000007C010001004B0052004E000100010074
:1001200000000100010001000100AA00A900A800D0
:1001300001004A00500051004F0049004C000000EF
:1001400000000000E1000000010001003900010092
:1001500001004D00A800010001000100E500A90018
:100160000000E000E300E2000000000000000100E9
:1001700000000000E6000100E4000100AA00010008
:1001800009023B00020100A0320904000001030142
:100190000100092101010001224000070581030837
:1001A0000001090401000103000000092101010010
:1001B00001227B00070583030800011201100100E2
:1001C000000008626B696801000102000116034427
:1001D00000490053004300490050004C0049004EC4
:1001E0000045000000200363006F00730065007984
:1001F00000660061006E006E006900740075007496
:10020000007400690000000403090405010902A14B
:100210000185020901A10005091901290815002518
:100220000195087501810205010930093115812503
:100230007F95027508810609381581257F9501751E
:10024000088106050C0A38021581257F950175087D
:100250008106C0C005010980A101850319012AB7E3
:1002600000150126B700950175108100C0050C0925
:1002700001A101850419012AA002150126A00295F9
:100280000175108100C005010906A101050719E0EB
:1002900029E715002501950875018102950175086A
:1002A00081030507190029FF150026FF0095067533
:1002B0000881000508190129059505750191029528
:1002C0000175039103C011241FBECFE5D8E0DEBF46
:1002D000CDBF10E0A0E6B0E0E6E0F8E302C0059094
:1002E0000D92AA3FB107D9F722E0AAEFB0E001C012
:1002F0001D92A73AB207E1F70E9465120C94CC1B3D
:100300000C940000A82FB92F80E090E041E050EA63
:10031000609530E009C02D9182279795879510F060
:1003200084279527305EC8F36F5FA8F30895EADF4E
:100330008D939D930895CF93CFB7CF93DF93C395BC
:10034000839BE9F7839B10C0839B0EC0839B0CC0EB
:10035000839B0AC0839B08C0839B06C0C0917E021A
:10036000C395C0937E028EC06F93C0917D02DD273E
:10037000CB57DD4F2F9365E5839B03C02F916F9182
:10038000E1CF0F931F934F9320E040E15F9300B3C1
:100390000C7003FB27F93F9350E03BE039C01C7021
:1003A00040642F77012F5F5F1EC0406810B31C7040
:1003B0002F7752501FC0406400B32F770C70D1F1DB
:1003C0005F5F00C023C0406210B32F771C7091F1B3
:1003D0005F5F00C025C00C701027515012F45D5FA4
:1003E0000000115027952C3F10B3C8F61C70012750
:1003F000015027952C3FC8F64227499300B30C7053
:1004000010274F73115027952C3FA8F64695469517
:1004100010B31C7079F00127015027952C3F98F6F6
:100420006B5A60F3315000B3B0F600C010E81ABF49
:1004300000271CC03B503195C31BD04010E81ABFA9
:100440000881033C21F10B3411F120917A021981CA
:10045000110F1213EDCF4A81441F093679F10D3285
:1004600011F0013E29F74F7009F0042F0093830229
:100470003F915F914F911F910F912F916F91CAB74B
:10048000C7FD5DCFDF91CF91CFBFCF911895209160
:100490008302222369F310918102112309F049C0DC
:1004A00034300AF448C03093810220937C021091CA
:1004B0007D023BE0311B30937D023DC00091810203
:1004C0000130BCF50AE54F7049F43091730034FDFA
:1004D00033C000937300C7E5D2E032C0433059F017
:1004E000443091F03091620234FD26C000936202E4
:1004F000C3E6D2E025C030919B0234FD1DC00093BD
:100500009B02CCE9D2E01CC030916E0234FD14C0D5
:1005100000936E02CFE6D2E013C0052710E000C0C2
:10052000000002BB1AC0052710E0221F1DC010E00A
:1005300021C04AE502C032ED432FC4E1D0E032E0F1
:1005400011B31C60939A02B311BB5CE020E865E331
:1005500020FF052702BB279517951C3FF0F66695EF
:10056000B8F7B1F720FF052702BB279517951C3F69
:10057000D0F62795179517FF052700001C3F02BBF3
:10058000B0F629913A9519F7037F10918202110F65
:10059000C651D04002BB11F010937A0210E81ABF86
:1005A000086011B3137F402F437F54E05A95F1F751
:1005B00002BB11BB42BB5CCF8230B8F46530A8F4FB
:1005C0004F3098F450E09FE0699F400D511D112479
:1005D000FA019BE4899FE00DF11D1124EE0FFF1F2E
:1005E000EC5AFF4F85919491089581E090E0089531
:1005F0000E94DC02089581E008950E94FB020895A4
:1006000081E008950E94FB0208950E94020308956C
:1006100008950E9408030895A6E0B0E0E2E1F3E047
:100620000C94291B49835A839E833091010189814F
:100630009A8131111AC03E81332399F0222389F027
:100640000E940809182F682F89819A810E94E40866
:1006500069817A81812F0E94D90F2696E3E00C945C
:10066000451B0E94F608182FF3CF0E9408096981E4
:100670007A81F1CFFC01262F408151816281738103
:10068000848195810E940C030895CF93DF93EC0140
:1006900061E00E943A03BE010E94FD02DF91CF910A
:1006A0000895CF93DF93EC0160E00E943A03BE010E
:1006B0000E940903DF91CF91089508950E94B90720
:1006C0000E945D032FEF84E39CE021508040904026
:1006D000E1F700C0000008950E945E030E94001828
:1006E00008950E945E030E94131808950F931F93AC
:1006F000CF93DF938C0161E00E943A03EC01B801D3
:100700000E940503811106C080E0DF91CF911F9107
:100710000F910895B801CE010E9460168823A1F3BD
:10072000B801CE010E94F614882371F3B801CE01FE
:100730000E94D215882341F3F8018581882361F056
:10074000C330FCE7DF07E9F058F4C115ECE7DE073A
:10075000A9F0C130DC47B9F0C8010E940003D5CF31
:10076000CB358CE7D807A9F0CC35ECE7DE0771F084
:10077000CA35DC4789F70E94280DEECF0E946C0332
:10078000C3CF0E94300D0E947103BECF0E941E0D88
:10079000E3CF0E942C0DE0CF0E947F170E94F3034D
:1007A00008950E94F7030E9484170895089581E038
:1007B00008950895CF93DF93D82F0E94D703C82FB1
:1007C000882319F08D2F0E94D9038C2FDF91CF91B0
:1007D00008950895CF93C82F0E94D6038C2F0E94AE
:1007E000DA03CF91089580E00E94EA0308950E9401
:1007F000AE160E94EA030895CF930E94AE16C82F4A
:100800008091FC008C1779F0C093FC000E94C11706
:100810006093FD007093FE008093FF0090930001B1
:100820008C2F0E94EA03CF910895ADE0B0E0EBE198
:10083000F4E00C942A1B488759876A877B878C874A
:100840009D8791110E946C0C1F8286E0FE013896F4
:10085000DE01119601900D928A95E1F78D8181114B
:100860000DC029813A814B815C816D817E818F81B0
:100870000E949F0B2D96E2E00C94461BCE01019640
:100880000E9445038111EDCFF5CFFC012481213079
:1008900021F4808191810E943A090895662329F00C
:1008A0000E94E9120E94BC1308950E944313FACFDC
:1008B000CF93C82F8823C9F08238C9F40E94AE169E
:1008C00081FD13C089E30E94240C0E94A50C2FEF28
:1008D00087EE93E0215080409040E1F700C0000097
:1008E00089E30E942C0C0E94A50CCF9108958338B7
:1008F000A1F40E94AE1680FDF8CF83E50E94240C7F
:100900000E94A50C2FEF81EE94E021508040904092
:10091000E1F700C0000083E5E4CF8438A1F40E9431
:10092000AE1682FDE2CF87E40E94240C0E94A50C43
:100930002FEF81EE94E0215080409040E1F700C01D
:10094000000087E4CECF8CEF8C0F813A90F46C2FAF
:1009500080916000909161000E943017882329F0F7
:100960008C2F0E942C0C0E94A50C8C2F0E94240C12
:10097000BACF80E28C0F883048F4C77081E001C0A4
:10098000880FCA95EAF70E944F0CADCFEBE5EC0F4C
:10099000E33040F4F0E0E655FF4F808190E00E94A4
:1009A000D416A3CFE8E5EC0FEB3150F4F0E0EE0FF6
:1009B000FF1FEC58FF4F808191810E94F91695CF5F
:1009C00083E38C0F833108F090CF61E08C2F0E947D
:1009D0004E048BCF882309F456C0823879F40E94E4
:1009E000AE1681FF50C089E30E94240C0E94A50C22
:1009F00089E30E942C0C0E94A50C0895833859F4B9
:100A00000E94AE1680FF3FC083E50E94240C0E9426
:100A1000A50C83E5EECF843859F40E94AE1682FF10
:100A200032C087E40E94240C0E94A50C87E4E1CF29
:100A30009CEF980F913AE8F290E2980F983050F4BA
:100A4000877091E001C0990F8A95EAF7892F0E947B
:100A5000550CD1CF9BE5980F933028F490E080E0BF
:100A60000E94D416089598E5980F9B3128F490E0E1
:100A700080E00E94F916089593E3980F933118F4DB
:100A800060E00E944E0408951F93CF93DF93182FC8
:100A9000EB010E945804209739F4812F0E94EA0448
:100AA000DF91CF911F9108958FE99FE00197F1F7B2
:100AB00000C000002197EFCF70E060E0893311F4AF
:100AC00060E570E00E9444050895882321F00E94AB
:100AD0004F0C0E94A50C0895882321F00E94550C0C
:100AE0000E94A50C0895B0E0A0E0E9E7F5E00C94C1
:100AF000231B6C01D62FC72FFC011581068102959F
:100B00000F700E94450CE82E8823E9F0E12E112396
:100B1000D1F08C2F807F803451F080E28D0F8830AF
:100B2000F8F0011104C08C2F807E8032C9F08091D2
:100B30003E0282FF15C082E00E94F20C0E94450C2A
:100B400091E0E82EE926BC2EB2949FE0B922FBE0AA
:100B5000FB15B8F1EB2DF0E0E253F44E0C94141BAE
:100B6000E12CF1CF0C2F0F70C07F11F00295007FA8
:100B7000112399F0002359F080E28D0F883010F096
:100B8000D11107C0802F0E944F0C0E94A50C8D2F01
:100B90005AC0802F0E945F0CF8CF8D2F0E94EA046C
:100BA000002379F080E28D0F883010F0D11104C05D
:100BB000802F0E94550C03C0802F0E94650C0E945C
:100BC000A50CEB2DE850FF0B349720F40E94AE16D5
:100BD0000E94EA03EE2089F00E94410C80FD0DC0C6
:100BE000F60115820E943B0C0E944208C6010E9439
:100BF00080070E943B0C0E945208CDB7DEB7E9E0A7
:100C00000C943F1B2C2F2F70F22EC07FC03219F096
:100C1000F29480EFF822DD2341F0D130D1F111239D
:100C200009F444C00023F1F0B2CF80913E0282FD6E
:100C300015C0112359F0FF2029F08F2D0E944F0C71
:100C40000E94A50C80E00E945804BBCF80E00E9467
:100C5000EA04FF2009F4B5CF8F2DABCF112369F043
:100C6000011104C08F2D0E946505ABCF013009F042
:100C7000A8CF8F2D0E94830CA4CF0111A2CF8F2D5E
:100C80000E946C058F2D0E948F0C8F2D0E94730C7B
:100C900098CF112321F0063008F093CFE3CF053031
:100CA00008F08FCF8F2D0E946C058BCF0023D1F3DE
:100CB000D93349F43FEF87EE93E0315080409040C4
:100CC000E1F700C000008D2F0E94EA047ACF8C2F3C
:100CD00086958695837069F0813009F072CF8D2FEB
:100CE0009C2F9370111102C080E090E00E94F916D1
:100CF00068CF8D2F9C2F9370111102C080E090E07F
:100D00000E94D4165ECF612F8D2F0E944E0459CFC2
:100D10008C2F8370A1F5111154CF4D2F429546951C
:100D20004770440F440F2D2F2F7030E0042E02C067
:100D3000220F331F0A94E2F790E080E0D4FF09C04D
:100D40008FE090E002C0880F991F4A95E2F78095E6
:100D50009095C695C695C370822B932BC23049F0EF
:100D600058F4C13019F00E9412082BCF0E940908D4
:100D700028CF0E941B0825CF0E94060822CF869507
:100D8000112311F08C2F8170882309F41ACF4D2F75
:100D9000429546954770440F440F2D2F2F7030E039
:100DA000042E02C0220F331F0A94E2F790E080E085
:100DB000D4FF09C08FE090E002C0880F991F4A95C8
:100DC000E2F780959095C695C695C370822B932BBC
:100DD000C23049F058F4C13019F00E947D08F1CEBC
:100DE0000E947408EECE0E948608EBCE0E942A086C
:100DF000E8CECF70112329F08C2F0E9442088D2F4E
:100E000032CF8D2F0E946C058C2F0E945208D9CEB4
:100E1000D23F41F160F4D03FB9F0D13F81F01123CE
:100E200009F446C00111B3CE8C2F8F711FC0D33F80
:100E300001F1D43FA1F780913E0282FD24C08C2FA6
:100E40008F71112311F312C0112341F0053008F006
:100E5000B8CE8C2F8F710E946408B3CE063008F094
:100E6000B0CEF7CF8C2F8F711111CFCF0E944208D7
:100E7000A8CE112329F08C2F8F710E943608A1CEA5
:100E80000E9431089ECE112349F0CF718C2F0E9411
:100E9000420863E08C2F0E94D40C93CE81E00E9424
:100EA000F20C023008F48DCE82E00E94F20C89CE62
:100EB000002359F0D93309F006CFEFEFF7EE23E026
:100EC000E150F0402040E1F7FCCE8C2F8F719DCF98
:100ED0000F931F93CF93DF93EC01688179818D810C
:100EE0000E9445098C010E948F080E940508B801E4
:100EF000CE010E947305DF91CF911F910F9108954C
:100F0000CF93DF93EC018C81882399F0CE010E946E
:100F10007603811111C00E94450C882351F08D8108
:100F2000882339F080913E0282FF03C082E00E9454
:100F3000F20CDF91CF910895CE010E946807CE0197
:100F40000E945103F6CF90E080E00E94D41690E01A
:100F500080E00E94F9160E946C0C0E94A50C0E9471
:100F6000D8130E94BC1308950E94340C0E94A3075A
:100F700008950E945C0C0E94B407089592959F709A
:100F8000963091F058F4925F9F70923058F4803F01
:100F900019F030F4883E30F481E008959A5FF4CF80
:100FA000843FD1F380E00895883EB0F3813FD1F7CC
:100FB000F3CFFC012481222339F0808191810E94AA
:100FC0003A090E94BE07089580E00895A6E0B0E0C7
:100FD000ECEEF7E00C942A1B2696E2E00C94461BFC
:100FE000A7E0B0E0E6EFF7E00C942A1B2796E2E0DA
:100FF0000C94461B08950E94FA0708950E94FB076F
:1010000090932D0180932C01089508950E94FE076E
:10101000089520912C0130912D01822B932B0E9459
:10102000FE07089520912C0130912D0182239323F6
:101030000E94FE07089520912C0130912D018227F6
:1010400093270E94FE0708950E94FA0708950E94C0
:10105000240808950E94270890932B0180932A0169
:10106000089590E080E00E942A08089521E030E091
:10107000A90102C0440F551F8A95E2F7CA010E94D8
:101080002A08089521E030E002C0220F331F8A951C
:10109000E2F780912A0190912B01822B932B0E94E1
:1010A0002A08089521E030E002C0220F331F8A95FC
:1010B000E2F72095309580912A0190912B018223AF
:1010C00093230E942A08089521E030E002C0220FF5
:1010D000331F8A95E2F780912A0190912B01822794
:1010E00093270E942A08089520912A0130912B010C
:1010F000822B932B0E942A08089520912A01309177
:101100002B01822393230E942A08089520912A010B
:1011100030912B01822793270E942A080895089571
:10112000262F277091E001C0990F2A95EAF723E056
:10113000769567952A95E1F7660F771F660F771FFB
:10114000FA01E60FF71F50E040E0682F70E0819150
:10115000DF0111979B01042E02C0369527950A9452
:10116000E2F7217021952827292328272C934F5F08
:101170005F4F4430510559F70895A82FA77023E019
:10118000969587952A95E1F7880F991F880F991FE3
:10119000FB01E80FF91F50E040E080E0219130E0D2
:1011A0000A2E02C0369527950A94E2F7217033275C
:1011B000042E01C0220F0A94EAF7822B4F5F5F4F83
:1011C0004430510559F70895262F953070F48F302B
:1011D00060F4682F70E08FE0989F600D711D1124FE
:1011E00042E051E0822F0E9490080895292F953007
:1011F00068F48F3058F490E062E071E03FE0239FA4
:10120000800D911D11240E94BD08089580E008956D
:10121000B0E0A0E0EEE0F9E00C94231B7C0100912B
:101220002A0110912B0180912C0190912D01082B06
:10123000192BCFE0D0E0CC24C394D12CBC2EC60116
:101240000C2E02C0880F991F0A94E2F78023912385
:10125000892B49F4219790F7B12C8B2DCDB7DEB7B0
:10126000E9E00C943F1BB7018C2F0E94E50F01971A
:1012700089F3F3CFCF93DF93EC010E940809BE01FD
:101280000E94E50FDF91CF9108951F93CF93DF93D5
:10129000EB0190910101992339F0CB010E943A09A9
:1012A000DF91CF911F910895882369F0CB010E94AF
:1012B0000809182F682FCE010E94E408BE01812F73
:1012C0000E94E50FEDCFCB010E94F608182FF6CF54
:1012D0001F93CF93DF93C0912E0117E080912F01D0
:1012E0008C1304C0DF91CF911F910895D0E01C9F13
:1012F000F0011D9FF00D1124E05DFE4F2081318132
:10130000428153816481758186810E94F007219614
:10131000C770E4CF209168013091690140916A0162
:1013200050916B0160916C0170916D0180916E0123
:101330000E94F0070895CF93DF9380916E01807F24
:1013400009F04DC080916D01882309F448C0E091F7
:101350002E0150912F01C0916901D09168016091D7
:101360006A0170916B0147E05E17C9F18E2F90E022
:10137000E49FF0011124E05DFE4F2481222391F1CE
:10138000489FF001499FF00D1124DF01A05DBE4F81
:1013900011962C9111972C1325C02C912D1322C03E
:1013A00015962C91159721111DC012962D913C91E7
:1013B000261B370B283C3105A8F480916E018F70F5
:1013C000806180936E01EA5CFE4F80818F70806146
:1013D000808388E691E00E9480070E946809DF917F
:1013E000CF910895FC013196E770BECF482F209130
:1013F0002E0190912F0157E0291302C080E008953B
:1014000030E0529FF001539FF00D1124E05DFE4F3C
:101410008181681306C08081481303C085818111D2
:10142000EECF2F5F3F4F2770E7CFA4E1B0E0EBE1B5
:10143000FAE00C94201B8C0186E0F801DE011F9677
:1014400001900D928A95E1F7F8018481E58098E694
:10145000A92E91E0B92E90916C0191111FC08823A3
:10146000D1F0EE20A9F0C8010E94D907F82E8823F8
:1014700079F087E0F801D50101900D928A95E1F7A6
:10148000C5010E9445040E949B090E948A095FC011
:10149000C8010E948007FF24F39459C0C080D18006
:1014A00082809380F0906D0120916A0130916B01F0
:1014B000A401421B530BFF2009F4F9C0483C51051D
:1014C00008F0A7C0882309F442C090916901809177
:1014D0006E01282F207F09F05CC09D1116C09091ED
:1014E0006801C91212C0E1104EC08F7080618093F4
:1014F0006E010E948A0988E691E00E94800780912F
:101500006E01F8018683F12C22C0E1103CC06D2DE4
:101510008C2D0E94F6096D2D8C2D0E94F609E82E67
:101520008111F1CFCF86D88A8F8598890E943A0998
:10153000292F22952F70243078F49F702230A8F044
:101540009923B9F0F8019681907F99F4FE2C8F2DA4
:101550006496ECE00C943C1B2A5F2F70223068F0FC
:10156000C8010E948007EF2CF1CF992311F0882346
:1015700069F3805E883050F3F3CF803F38F3815FAA
:10158000833070F7E3CF80916E01816080936E01AC
:10159000BACF9D1113C090916801C9120FC0E1101C
:1015A0000DC08683C8010E94800787E0F801A8E685
:1015B000B1E001900D928A95E1F767CFC8010E94D2
:1015C000D907882309F464CFEE2009F461CF809114
:1015D0006E01803288F0209168013091690139876D
:1015E00028879B868A8690916C019C871D868E87B2
:1015F000CE0108960E94800787E0F801A8E6B1E0D6
:1016000001900D928A95E1F70E949B090E948A0938
:1016100042CF90916E01292F207FA1F4682D9A8AE4
:10162000898AA6017A899E2D0E94E60788E691E0C4
:101630000E94800787E0F50111928A95E9F70E94E0
:101640008A0961CF882309F482CF809169018D11C5
:1016500010C080916801C8120CC0E1100AC09683C6
:10166000C8010E94800787E0F50111928A95E9F789
:101670006ECFC8010E94D907882309F409CFEE2054
:1016800009F406CF80916E01803208F4B5CF209125
:101690006801309169013A8329839C828B82909101
:1016A0006C019D831E828F83CE010196A3CF483C9F
:1016B0005105B8F5882309F4EECEFE2CEE2009F48E
:1016C000E7CE809169018D111EC080916801C8121A
:1016D0001AC080916E0180FD0DC0982F907F51F04F
:1016E0008683903F09F45ECF982F907F905F8F7034
:1016F000892B57CF87E0F801A8E6B1E001900D9261
:101700008A95E1F724CFC8010E94D907811174CFCF
:1017100080916E01816080936E01C8010E948007F4
:1017200016CF682D9A8A898AA6017A899E2D0E94F1
:10173000E60787E0F50111928A95E9F7A6CEAEE0BB
:10174000B0E0E5EAFBE00C94291B288739874A873B
:101750005B876C877D878E87CE0108960E94150A6D
:101760008823B1F06C85662341F0288539854A8548
:101770005B857D858E850E94F00717E080912E01A4
:1017800090912F0189133DC02E96E3E00C94451BE8
:1017900087E0FE013896DE01119601900D928A9540
:1017A000E1F78C85882349F320912F0130E0C901AE
:1017B00001968770992740912E014817190699F0D4
:1017C00097E0929FD001939FB00D1124A05DBE4F72
:1017D000FE01319601900D929A95E1F780932F01C9
:1017E0000E946809CACF0E94B90710922F01109277
:1017F0002E0187E0E8E6F1E0DF011D928A95E9F726
:10180000BCCF819FC0011124805D9E4F0E94150AAC
:10181000882309F4B9CFE0912E011E9FF001112415
:10182000E05DFE4F20813181428153816481758169
:1018300086810E94F00780912E0190E001968770CA
:10184000992780932E019ACF682F80916000909104
:1018500061000E9466170895682F80916000909142
:1018600061000E9469170895809160009091610065
:101870000E946C17089580916F01869586958695D4
:10188000089580916F018770089590916F0197700E
:1018900081E009F480E0089580917B0108959091A2
:1018A0007B01892B80937B010895809590917B012A
:1018B000982390937B01089510927B010895909155
:1018C0007A01892B80937A010895809590917A010D
:1018D000982390937A01089510927A0108950895BB
:1018E0000E946F0C089590917001292F282331F0E8
:1018F00080958923809370010E94700C089508954B
:101900000E947F0C089590917101292F2823281798
:1019100029F0982B909371010E94800C089590916A
:101920007101292F282331F080958923809371013B
:101930000E94800C089580917101882329F01092F3
:10194000710180E00E94800C0895E0916000F091A8
:10195000610080917B018083E0916000F0916100E3
:10196000808190917A01892B8083909171019923D4
:1019700081F0E0916000F09161008081892B80838B
:1019800080916000909161000E941E1781110E9459
:101990009B0C80916000909161000E94BB1608959D
:1019A00008950E94D00C089590913E0292FF11C0BC
:1019B00098E0899F90011124622B60936F010E942F
:1019C000420880916F018695869586950E94D10C7C
:1019D00008950E944208089510926F0180E00E94CD
:1019E000D10C089590916F018095892380936F01A8
:1019F000282F277069F4891759F090913E0292FFC1
:101A000007C08695869586950E9452080E94EC0C28
:101A1000089590913E0292FB222720F9281769F041
:101A200080FB92F990933E0280913D0290913E029C
:101A30000E94510D82E00E94F20C089580913E02B6
:101A400082FB882780F991E089270E94090D08957B
:101A500081E00E94090D089580E00E94090D08951B
:101A60006FEF7FEF90E080E00E94B61B089590E05A
:101A700080E00E94831B21E0863E9E4F09F020E01B
:101A8000822F089582E090E00E947B1B089583E0FE
:101A900090E00E947B1B089584E090E00E94831BED
:101AA0000895BC0184E090E00E94B61B0895AB014C
:101AB000BC018FE090E00E94AA1B0895AB01BC011D
:101AC00083E190E00E94AA1B089560E070E0CB01E2
:101AD0000E945E0D089560E070E0CB010E94570DFA
:101AE0000E94650D0895A8E0B0E0E9E7FDE00C94E0
:101AF0002A1B66EE7EEF90E080E00E94B61B60E05D
:101B000082E090E00E94991B60E083E090E00E94F8
:101B1000991B10922D0110922C0160E074E184E079
:101B200090E00E94B61B60E086E090E00E94991B66
:101B30006FEF87E090E00E94991B40E050E0BA010F
:101B400088E090E00E94AA1B60E084E290E00E949E
:101B5000991B60E087E190E00E94991B60E08CE0B7
:101B600090E00E94991B60E08DE090E00E94991B3C
:101B700019821A821B821C821D821E821F82188675
:101B800048E050E068E170E0CE0101960E94891BB8
:101B900040E050E0BA0180E290E00E94AA1B0E945F
:101BA0006B0D2896E2E00C94461B0E94730D08957D
:101BB000682F8EE090E00E94991B0895A6E0B0E0A7
:101BC000E4EEFDE00C94281B0E94B5178C01809177
:101BD0007C0190917D018017910781F019821A8212
:101BE0000E94B517682F49815A81792F80E090E0D3
:101BF0000E94150410937D0100937C012696E4E079
:101C00000C94441B0E94C11760938C0170938D014A
:101C100080938E0190938F01609388017093890166
:101C200080938A0190938B010895089508950E94EE
:101C3000160E089508950E941A0E089581E00895E1
:101C40008FEC90E10E94A4160E94150E0E94170EC0
:101C500008950E941E0E08950E94290E0895089569
:101C600008950E942F0E0E94300E08950E94EE10DB
:101C70000E94E90308950E94AE170E94CD110E94B0
:101C8000360E0E941B0E0895A6E0B0E0EAE4FEE0E6
:101C90000C941E1B0E941E0E81110AC00E94DE0DB4
:101CA0000E94FA130E94FC032696EEE00C943A1B65
:101CB0000E94E3112EE7822E21E0922E640110E0B3
:101CC000F601E190F1906F01812F0E9414111F5FC6
:101CD000153009F44BC0E816F90691F38091900194
:101CE00081FD0E941D110E942C0E782E10E06624AA
:101CF0006394812F0E9414117C01F401A190B19092
:101D00004F018A159B0561F100E0CC24C394D12CCE
:101D1000AE24BF24C5018C219D21892BC1F07720E1
:101D2000B1F009831A830E94B5179C838B836D825F
:101D300021E0C7018C219D21892B09F420E04981F4
:101D40005A816B817C818D81922F0E9415040F5FD7
:101D5000CC0CDD1C0F30F1F6F4013297F182E082F9
:101D60001F5F153031F60E94020E9ACFE816F90671
:101D700009F0B4CF93CF1F93CF93DF930E94EA0F64
:101D8000EC01C11580E5D807F0F5C11580E4D8074E
:101D900008F09CC0C03ED10520F5CD3CD10508F02F
:101DA00082C0C83AD10578F4C53AD10508F073C0AD
:101DB000C130D10519F1209709F1C430D105F0F4F3
:101DC000D0E0C0E01BC0C33CD105D0F7C85AD0E07A
:101DD000CC0FDD1FC355DF4F0990D881C02DD464CF
:101DE0000DC0C11580E2D80708F0D1C0C11581E04F
:101DF000D80708F05AC0C83ED10510F7CE01DF91D0
:101E0000CF911F910895C03682E5D80718F5C034E8
:101E100082E5D80708F06BC0C03282E5D80708F029
:101E20005FC0C11582E5D80708F497C02C2F26950E
:101E3000269580E2289F900111248C2F8370C1E0A9
:101E4000D0E002C0CC0FDD1F8A95E2F7C22BD32B66
:101E5000DD68D4CFC03A82E5D80760F4C03882E5A7
:101E6000D80708F459C0CF71D0E0DC2FCC27C46F5D
:101E7000D06AC4CFC03C82E5D80708F462C0C03E37
:101E800082E5D80708F09CCFDC2FCC27CC27DF7168
:101E9000C06FD06AB3CFC55AD0E0CD51DF4FC881F3
:101EA000D0E0D064ABCFD065A9CF8D2F0E948C102D
:101EB000182FCE0199270E94EA0FC12FD0E0DC2F06
:101EC000CC27CC27DF71C82BD92B98CFCE019927EF
:101ED0000E94EA0FCC27DF70C82BD92BD06A8ECF97
:101EE000CF71D0E0DC2FCC27C16FD06A87CF2C2FE9
:101EF00026952695277080E2289F900111248C2F2B
:101F00008370C1E0D0E002C0CC0FDD1F8A95E2F7FC
:101F1000C22BD32BDC6872CF2C2F269526952770E9
:101F200080E2289F900111248C2F8370C1E0D0E0C3
:101F300002C0CC0FDD1F8A95E2F7C22BD32BDA68E3
:101F40005DCF8C2F8F710E948C10C82FD0E0DC2FBA
:101F5000CC27CC27DF71D06251CF8C2F8F710E949C
:101F60008C1055E0D695C7955A95E1F7CF70D0E023
:101F7000DC2FCC27282F30E084FF05C044E0220F5F
:101F8000331F4A95E1F7C22BD32BD06937CF8D2F62
:101F90008F710E948C10182FCE0199270E94EA0F92
:101FA000C12FD0E0DC2FCC27CC27DF71C82BD92B59
:101FB000D2CF462F753030F46F3020F4672F0E9457
:101FC000F802089590E080E008950E94D90F0E94E1
:101FD000BB0E089582389105B9F1B0F481339105B3
:101FE00009F47DC048F48932910509F46DC08A3244
:101FF000910509F47BC008958533910509F45FC00C
:102000008933910509F10895833E9105D9F138F49A
:10201000803E910529F1823E910579F10895863E31
:102020009105D9F1873E910509F43EC0843E9105A2
:1020300041F520913E0221FF24C080913D0284FDA4
:1020400019C087EE90E0089520913D02237009F0B9
:102050005AC020913E0223FF14C089E290E0089507
:1020600020913D0220FD38C030913E0230FF09C072
:1020700024FF43C090E080E0089520913D0222FDBE
:10208000F7CF089520913D0222FD3AC030913E02E3
:1020900030FD39C024FFF5CFEDCF20913D0223FF65
:1020A000F0CF24FDE7CFCDCF20913D0223FD2EC000
:1020B00030913E0231FFEECF84EE90E00895209102
:1020C0003D0225FFDECFC9CF20913D0225FD21C075
:1020D00020913E0223FFD5CF89E390E0D2CF20911B
:1020E0003D0226FFCECF8AE290E0089520913D0286
:1020F00026FFC7CF81E390E0089583EE90E0089536
:1021000082EE90E0089580EE90E0089586EE90E0F3
:10211000089585E390E0089590913D0292FF06C0F6
:10212000282F28712830F9F4877F846093FF06C038
:10213000282F28712831F1F4877E846120913E0296
:1021400020FF06C0382F38713830D9F4877F81607E
:1021500021FF06C0282F28712831D1F4877E8161A4
:1021600094FD877E0895282F24712430F9F68B7F03
:102170008860DCCF282F2471243101F78B7E8861A1
:10218000DDCF382F3171313019F78E7F8860E0CF85
:10219000282F2171213121F78E7E8861E1CF80E0E7
:1021A00008950E94300D08950E94E3112FEF86E7F5
:1021B00091E0215080409040E1F700C000000E9473
:1021C000E31180E00E94141180FF04C00E94D1102E
:1021D0000E94001808950E94D41008950E94370D9F
:1021E000811102C00E94D50D0E94420D8093900182
:1021F0000E944C0D90933E0280933D020E94EB1092
:102200000E94470D90E00E94060880912A0190915B
:102210002B010E942708089508950E940C1108952B
:1022200008950E9410110895E82FF0E0EE0FFF1FAF
:10223000E75BFD4F808191810895089580EA8A953A
:10224000F1F7089500C008950E941E110895F894B2
:10225000E82FE295EF70F0E031A9282F2F7081E090
:1022600090E001C0880F2A95EAF7982F9095932364
:1022700091AB92A9892B82AB789408950F931F9309
:10228000CF93DF93C5EFD0E089918F3F11F00E948B
:10229000271180E0CA3FD807B9F7C6EED0E005EFB6
:1022A00010E089918F3F11F00E9427110C171D0734
:1022B000C1F7DF91CF911F910F910895AF92BF9217
:1022C000DF92EF92FF920F931F93CF93DF938C01D6
:1022D000D62EC62FD0E0CE018B509F4F7C01FC0143
:1022E00020812F3F09F44CC0F894E22FE295EF7063
:1022F000F0E031A92F7081E090E001C0880F2A95AD
:10230000EAF7932F982B91AB92A98095892382AB02
:1023100078940E942211E6EEF0E041E050E0B12C0A
:10232000A12C21912F3FB1F1A22FA295AF70B0E067
:10233000D0968C9190E02F7002C0959587952A9544
:10234000E2F780FD27C0CA01A82AB92A440F551F09
:1023500080E0E53FF80729F7F70180818F3F11F012
:102360000E94271161E0A114B10409F460E08D2DF1
:102370000E942411CC0FDD1FC00FD11FB982A8828B
:10238000DF91CF911F910F91FF90EF90DF90BF9061
:10239000AF90089590E080E0D7CF0E943E118AE090
:1023A000E9E4F2E0DF01982F1D929A95E9F7EFE357
:1023B000F2E0DF011D928A95E9F785E00E941E1286
:1023C0000E940D110895AAE0B0E0E9EEF1E10C944D
:1023D000271B8E010F5F1F4F8AE0F80111928A952B
:1023E000E9F7F12C6F2DC8010E945E11F394F5E01E
:1023F000FF12F8CF4AE050E0B8018FE392E00E946C
:10240000651B21E0009709F420E0892B41F08AE068
:10241000F801AFE3B2E001900D928A95E1F745E053
:1024200069E472E08FE392E00E941F12182F0E946D
:102430001111812F2A96E5E00C94431B0895CF9249
:10244000DF92EF92FF921F93CF93DF936C017B019A
:10245000C42F222349F081E0809393010E94B51795
:1024600090939201809391011091930111110AC0F0
:1024700010E0812FDF91CF911F91FF90EF90DF90BF
:10248000CF90089580919101909192010E94CD1773
:10249000059770F3D0E0CC0FDD1FAE01B601C70188
:1024A0000E94651B892B41F0AE01B601C7010E9455
:1024B000721B10929301DDCF10E0FBCF0E94231816
:1024C0000E943B0E0E94341808950E949C170E949F
:1024D0001C180E94200E0E945E120E9442180E9448
:1024E000310EFBCF80919A0180FF0DC06091670093
:1024F00070E0660F771F6038710570F56115710522
:1025000069F1862F089581FF07C06091670084E01C
:10251000689FB0011124EFCF6091670082FD0AC06F
:10252000809199018823A9F020916600609167004D
:10253000821710F088E0ECCF869FC001112433E0B1
:10254000880F991F3A95E1F7622F70E00E94001BF7
:10255000D2CF68E070E0D5CF8FE7089581E008958D
:1025600080919A0180FF0CC06091630070E07595C6
:102570006795759567956115710549F1862F0895E1
:1025800081FF06C06091630070E075956795F3CF99
:102590006091630082FD0BC0909198019923A1F096
:1025A0006091620080916300961738F0682F70E0A8
:1025B0006038710500F38FE70895899FC0011124E9
:1025C00070E00E94001BF4CF61E070E0D7CF81E0A3
:1025D00008958D3C31F40E947212819580939E0182
:1025E00008958E3C19F40E947212F8CF8F3C31F49A
:1025F0000E947212819580939D010895803D19F487
:102600000E947212F8CF893D29F40E94B012809383
:102610009F0108958A3D21F40E94B0128195F7CF61
:102620008B3D31F40E94B01281958093A0010895F2
:102630008C3D19F40E94B012F8CF9FE2980F9830A9
:1026400070F4815D990B21E030E001C0220F8A9582
:10265000EAF780919C01822B80939C0108958D3D27
:1026600031F480919A01816080939A0108958E3DA2
:1026700021F480919A018260F7CF8F3DB9F7809164
:102680009A018460F1CF40919D018D3C59F4809175
:102690009E0187FF0DC010929E0141110BC0109248
:1026A000990108C08E3C81F480919E0118169CF31C
:1026B000442381F080919F019091A001892B09F022
:1026C0005AC01092980108958F3C49F447FFF0CF0B
:1026D00010929D0180919E018111ECCFE0CF803D51
:1026E00019F41416ACF3E4CF90919F01893D29F4BD
:1026F0001916F4F610929F01DBCF8A3D19F497FF6B
:10270000D7CFF8CF9091A0018B3D29F497FFD0CF80
:102710001092A001CDCF8C3D19F41916CCF3C8CF7F
:102720009FE2980F983090F4815D990B21E030E0A2
:10273000B90102C0660F771F8A95E2F7CB01809539
:1027400090919C01892380939C01B2CF8D3D31F4FF
:1027500080919A018E7F80939A01AACF8E3D21F4B9
:1027600080919A018D7FF7CF8F3D09F0A1CF8091A5
:102770009A018B7FF0CF08950E94B5179C0190912C
:102780009D0180919E01982B21F030939701209319
:10279000960190919F018091A001982B21F0309398
:1027A0009501209394018BE991E00E94C61608954B
:1027B00086E0EBE9F1E0DF011D928A95E9F71092DE
:1027C00099011092980110929A010895FC0182815A
:1027D00081110EC0838181110BC08481811108C0D9
:1027E00091E08581811101C090E0892F8170089569
:1027F00081E0FCCFA6E0B0E0E0E0F4E10C94291B1E
:1028000086E0EBE9F1E0DE01119601900D928A95E8
:10281000E1F710929D0110929E0110929F0110927B
:10282000A0018B819C81892B89F0809196019091E8
:1028300097010E94CD17AC01909199019923C9F19C
:10284000809168008417150608F440C08D819E8130
:10285000892B91F080919401909195010E94CD1760
:10286000AC0190919801992309F471C080916400A2
:102870008417150608F479C0BE016F5F7F4F8BE99E
:1028800091E00E947317811105C08BE991E00E94CD
:10289000E61381110E94BC1386E0FE013196ABE97C
:1028A000B1E001900D928A95E1F72696E3E00C9451
:1028B000451B209169008AE0289F9001112424176C
:1028C000350720F69F5F9093990102C09F3FD1F793
:1028D0001B81112359F00E9472129FEF11160CF404
:1028E00091E0899F802D112480939D011C811123EB
:1028F00059F00E9472129FEF11160CF491E0899F1B
:10290000802D112480939E0130919D01332309F481
:102910009DCF20919E01222309F498CF45EB3403EB
:10292000C0011124992359F090939D0145EB240394
:1029300090011124332339F030939E0187CF81E039
:1029400080939D01F3CF81E080939E017FCF209102
:1029500065008AE0289F900111242417350708F0AC
:102960008BCF9F5F9093980102C09F3FD1F71D814D
:10297000112359F00E94B0129FEF11160CF491E050
:10298000899F802D112480939F011E81112359F06E
:102990000E94B0129FEF11160CF491E0899F802DD8
:1029A00011248093A00130919F01332309F464CF57
:1029B0002091A001222309F45FCF45EB3403C0012D
:1029C0001124992359F090939F0145EB2403900122
:1029D0001124332339F03093A0014ECF81E080934E
:1029E0009F01F3CF81E08093A00146CFCF93DF9387
:1029F000EC01FB018581882309F4D2C09E01305788
:102A00002332310508F0B2C00E944C0D90933E0273
:102A100080933D02FE01E150F047E232F10520F4DF
:102A2000E652F44E0C94141B80913D028160809319
:102A30003D0293C080913E02886080933E028DC02B
:102A400080913D028260F3CF80913D028460EFCFA0
:102A500080913D028860EBCF80913E028160EDCF96
:102A600080913E028260E9CF80913D028061DFCF9C
:102A700080913D028062DBCF80913D028064D7CFA0
:102A80000E94B90780913D028068D1CF80913D02BC
:102A90008C60CDCF80913E028360CFCF80913D028C
:102AA0008E7FC5CF80913E02877FC7CF80913D0248
:102AB0008D7FBDCF80913D028B7FB9CF80913D024C
:102AC000877FB5CF80913E028E7FB7CF80913E0247
:102AD0008D7FB3CF80913D028F7EA9CF80913D0243
:102AE0008F7DA5CF80913D028F7BA1CF0E94B9073A
:102AF00080913D028F779BCF80913D02837F97CF5E
:102B000080913E028C7F99CF80913D0282FB992774
:102B100090F921E0922790FB82F990FB83F987CF0F
:102B200080913E02982F909591708E7F892B90FB1B
:102B300081F983CF90913D02892F8F7B96FF80642E
:102B400076CF0E94B90790913D02892F97FB87F9B4
:102B500080586DCF81E00E94D80D80913D02909108
:102B60003E020E94510D0E94B90780E0DF91CF9193
:102B7000089580E0F0CF90913D02892F8F7E94FFE1
:102B8000806155CF90913D02892F8E7F90FF8160AB
:102B90004ECF90913E02892F877F93FF88604DCF63
:102BA00081E0E4CFCF93DF93EB0186319C4711F5B1
:102BB0000E944C0C9D81992399F08A7A91E009F446
:102BC00090E09093A101811109C089E20E94240C38
:102BD0000E94A50C80E0DF91CF91089585E3F6CFA8
:102BE0008091A101811104C089E20E942C0CF0CFD8
:102BF00085E3FBCF81E0EFCF0F931F93CF93DF935C
:102C0000C42FD22FFC0185818823C9F04093A401F1
:102C10000E94B5179093A3018093A20180E28C0FCC
:102C2000883040F4C77081E001C0880FCA95EAF788
:102C30000E946505DF91CF911F910F91089510912A
:102C4000A401141332C08091A2019091A3010E94AB
:102C5000CD17883C910548F5C0E2CD0F1D17B9F09E
:102C600080E2810F883040F4177081E001C0880F46
:102C70001A95EAF70E946C05C83048F481E09D2F50
:102C8000977001C0880F9A95EAF70E946505802F1A
:102C90000E945C05C83070F6D77081E001C0880FD3
:102CA000DA95EAF70E946C05C5CF80E28C0F883078
:102CB00008F6C77081E001C0880FCA95EAF7F2CF25
:102CC0000F93DB0188519C4787309105A0F5FC01EB
:102CD000E450F44E0C94141B06E221EE41EE6AE13E
:102CE0007CE7CD010E94FC1580E00F91089507E27A
:102CF00025EE45EE6BE17CE7F4CF06E221EE40EEF7
:102D000068E17CE7EECF07E225EE44EE69E17CE77F
:102D1000E8CF06E221EE42EE6CE17CE7E2CF07E28B
:102D200025EE46EE6DE17CE7DCCF08E221E045EEE2
:102D30006EE17CE7D6CF15968C91882319F010921E
:102D4000A401D3CF81E0D1CF9093FB008093FA0010
:102D500008959093AA018093A9010895E091A90193
:102D6000F091AA01309729F00190F081E02D0995AA
:102D7000089580E00895E091A901F091AA013097AB
:102D800021F00280F381E02D09950895E091A901D9
:102D9000F091AA01309739F022E0DC012C930480F5
:102DA000F581E02D09950895A3E0B0E0EAEDF6E1A4
:102DB0000C942A1B2091A7013091A80128173907EC
:102DC000A1F09093A8018093A701E091A901F0914F
:102DD000AA01309751F023E029839B838A830680E0
:102DE000F781E02DCE01019609952396E2E00C943F
:102DF000461BA3E0B0E0EFEFF6E10C942A1B209114
:102E0000A5013091A60128173907A1F09093A601DA
:102E10008093A501E091A901F091AA01309751F0AA
:102E200024E029839B838A830680F781E02DCE01ED
:102E3000019609952396E2E00C94461B9C012E5FB7
:102E40003F4FAC01485F5F4F80E02417350709F41E
:102E50000895F90191919F019923B9F38F5FF5CFFF
:102E6000662349F0FC01329608962191261729F035
:102E7000E817F907D1F780E0089581E008959C01F3
:102E8000FC0132969FEF80E04191461751F09F3F41
:102E900019F4411101C0982F8F5F8630A9F79F3F29
:102EA00009F40895290F311D97FD3A95F9016283C0
:102EB0000895FC01329608962191261303C0DF0184
:102EC00011971C92E817F907B9F708950E943F1768
:102ED00008950E9459170895029626E0FC01119268
:102EE0002A95E9F7089546E050E00E94651B21E02D
:102EF000892B09F420E0822F0895089508950E94F7
:102F00007E170895089508950E947D170895CF9320
:102F10000E9482170E94E3110E948317C0E08C2F49
:102F20000E941411892B31F4CF5FC530C1F780E0C6
:102F3000CF91089581E0FCCF84B7806884BF84B7C7
:102F4000806884BF08958091AD0181110E94CC03F7
:102F500008950E94B9070E94D10308958BE083BFB2
:102F60008AEF8CBF82E089BF08952FB7F8948091D3
:102F7000530290915402A0915502B09156022FBF76
:102F800008952FB7F8946091530270915402809184
:102F90005502909156022FBF08959C014FB7F894A7
:102FA0008091530290915402A0915502B091560223
:102FB0004FBF821B930B089578941F921FB61F92E8
:102FC00011248F939F93AF93BF938091530290915D
:102FD0005402A0915502B09156020196A11DB11D57
:102FE0008093530290935402A0935502B0935602DB
:102FF000BF91AF919F918F911F901FBE1F90189509
:1030000088E198E00FB6F894A89581BD0FBE91BDF8
:10301000A895F894D8E0CEE528E3299320E02993F9
:1030200014BEFFCF089588E198E00FB6F894A895F4
:1030300081BD0FBE91BDFFCF0E94B5179093AC012B
:103040008093AB0108950E94E51A8B9A80E081502D
:1030500019F48B9878940895A895EFE9FFE03197DB
:10306000F1F700C00000F3CF0E9407190E94A916D3
:103070002FEF80E792E0215080409040E1F700C0C0
:103080000000089580917E02882311F110927E0243
:103090000E94B5179093AC018093AB018091AD0174
:1030A000882341F01092AD010E94A9178091AD01D3
:1030B000811112C00E94F51980918402882329F0A1
:1030C0008091620284FD0E94440E0E94AE18089511
:1030D0008091AD01882301F10E94A3170E948717F8
:1030E0008823A9F3F89421B3939A822F8C6081BB33
:1030F00092B33CE0932792BB4FE788E391E04150C5
:1031000080409040E1F700C0000082B3832782BB7B
:1031100021BB9398789408958091AB019091AC0174
:103120000E94CD17069708F4C1CF81E08093AD01CE
:103130000E94A317BBCF80913C02089520919B026F
:1031400024FF03C063E00E94F019089520919B02C0
:1031500024FF03C066E00E94F0190895CF93DF9327
:10316000CAE0D0E08091620284FF1AC08091B90168
:103170009091BA01981789F028E0829FC00111242C
:1031800068E085549E4F0E94EB198091B90190E050
:1031900001968F7099278093B901DF91CF9108959F
:1031A0000E94F5198FE99FE00197F1F700C0000038
:1031B0002197C1F6F2CFCF93DF93EC01A091BA0132
:1031C000B0E0CD0101968F7099272091B9012817A1
:1031D00079F093E0AA0FBB1F9A95E1F7A554BE4F73
:1031E00098E0FE0101900D929A95E1F78093BA0163
:1031F0000E94F5190E94AE1888E0FE01A1EBB1E033
:1032000001900D928A95E1F7DF91CF9108958AE6BA
:1032100090E00895FC01808180768032F1F4818114
:10322000813061F484819581892BB9F481EB91E03F
:103230009093800280937F0288E00895823041F469
:103240008BE392E09093800280937F0281E0089567
:103250008A3029F4838180933B0280E0089589308D
:10326000E1F7828193818115924069F4848195818F
:10327000892B49F481E08093B001868197819093F6
:10328000AF018093AE018FEF0895FC018091AE01F4
:103290009091AF01892B61F08091B001813041F4B0
:1032A000908190933C021092AF011092AE0108956C
:1032B0008FEF08950895FC019381933059F130F414
:1032C0009130C1F09230F1F080E00895913209F42C
:1032D00040C09232C9F784819581009709F44AC0B1
:1032E000019791F78BE092E09093800280937F02A8
:1032F0008BE708958BEB91E09093800280937F029F
:1033000082E1089580E891E09093800280937F02AB
:103310008BE3089582818130A1F0882351F08230BF
:1033200099F68DEC91E09093800280937F0286E184
:10333000089587E092E09093800280937F0284E07A
:10334000089585EE91E09093800280937F0280E261
:1033500008958281882331F0813009F0B5CF8BEA5E
:1033600091E002C082E991E09093800280937F0215
:1033700089E0089586E892E09093800280937F022E
:1033800080E408951F93CF93DF93E82F792F162FB2
:10339000EA01888184FF1CC0298188E828272983C5
:1033A000CE010296DC012E2F372F512F5E0FF9012F
:1033B00021912D939F01452F4E1B1416C4F3612FAD
:1033C0000E9497011C5F1883DF91CF911F91089590
:1033D0008AE58883E5CF42E652E00E94C21908954B
:1033E0004BE952E00E94C2190895CF93DF93609198
:1033F0008102635067FD12C080917D02CCE0D0E075
:10340000C81BD109CB57DD4F80917C02803108F079
:1034100054C0CE010E945A1910928102809173000B
:1034200084FF3EC0809172008F3FD1F1C82F893058
:1034300008F0C8E0982F9C1B90937200909157025F
:1034400028E89227909357028823E9F080917F0221
:103450009091800220917B0226FFAEC0FC012C2FB0
:10346000A8E5B2E034913D9331962150D9F79C0103
:103470002F5F3F4F8FEF8C0F820F932F911D9093F3
:10348000800280937F026C2F88E592E00E94970172
:10349000CC5FCC3019F08FEF80937200C093730033
:1034A00084E190B39C7031F48150D9F7109282027C
:1034B00010927A02DF91CF9108958D3209F069C0A0
:1034C000683009F0A9CF83EC809357028AE5809396
:1034D000730010927B028881807671F0CE010E9489
:1034E0000A198F3FC1F4988197FD8E8190E89093DF
:1034F0007B028093720090CF2A81109260029981A2
:10350000911111C01092610220E632E082E0309306
:10351000800220937F029F819111EBCF9E819817AB
:1035200040F7892FE6CF953029F42093820220E6D8
:1035300032E0EDCF963099F49B81913021F4CE01A9
:103540000E945B1908C09230D1F39330C1F39132DD
:10355000B1F39232A1F390E490937B02C2CF983002
:1035600089F0993019F420938402E1CF9A3071F0F8
:103570009B30E9F69BE49093630290939C029093B6
:103580006F02D5CF24E832E081E0C1CF20E632E0FF
:10359000FBCF80917B0287FF3FCFCE010E94451970
:1035A0008F3F21F48EE18093730036CF882309F496
:1035B00033CF1092720030CFDC012C2FE8E5F2E01F
:1035C0003D9131932150E1F752CFCF93DF9385B7EF
:1035D000886085BF8BB780688BBFC2E6D2E08BE482
:1035E0008983ABE9B2E011968C931197EEE6F2E095
:1035F00081838AE588838C938083DF91CF910895BE
:1036000097FB072E16F4009407D077FD09D00E948F
:10361000511B07FC05D03EF4909581959F4F08956E
:10362000709561957F4F0895EE0FFF1F0590F491FF
:10363000E02D09942F923F924F925F926F927F926A
:103640008F929F92AF92BF92CF92DF92EF92FF92B2
:103650000F931F93CF93DF93CDB7DEB7CA1BDB0B5E
:103660000FB6F894DEBF0FBECDBF09942A88398803
:1036700048885F846E847D848C849B84AA84B9840A
:10368000C884DF80EE80FD800C811B81AA81B98116
:10369000CE0FD11D0FB6F894DEBF0FBECDBFED012A
:1036A0000895AA1BBB1B51E107C0AA1FBB1FA61789
:1036B000B70710F0A61BB70B881F991F5A95A9F7DB
:1036C00080959095BC01CD010895FB01DC0104C0FB
:1036D0008D910190801921F441505040C8F7881B0A
:1036E000990B0895FB01DC0102C001900D9241503D
:1036F0005040D8F70895E199FECF9FBB8EBBE09A6A
:1037000099278DB30895A8E1B0E042E050E00C9411
:10371000BE1BDC01A40FB51F4150504048F0CB0147
:10372000840F951F2E910E949A1B41505040D0F754
:103730000895262FE199FECF9FBB8EBBE09A01979B
:103740000DB2021631F02DBB0FB6F894E29AE19A51
:103750000FBE08950396272F0E949A1B0E94991B63
:10376000252F0E949A1B242F0C949A1B0196272F19
:103770000E949A1B0C94991BDC01CB01FC01E1997E
:10378000FECF06C0FFBBEEBBE09A31960DB20D92A4
:1037900041505040B8F70895F894FFCFB205B205F4
:1037A0000206020667068306E105E1058806F906BA
:1037B000080708074E15C2155615201524155A1569
:1037C00028155E156A153415BB1538156E153C1590
:1037D00072159A1540157615A11546157C15841598
:1037E0002C156215301566154A1580159015AA1509
:1037F000B9151A155215C9157D1683166C1677164C
:0638000089168F169516D3
:103806007201280850011E0A14019B18DB18A6181D
:103816009E18FF5AE200E900EA00B500B600B700BC
:10382600CD008301CC008A0192019401210223027A
:1038360024022502260227022A02B300B4006F00E2
:1038460070009F01CB019F02A002818283E200E902
:1038560000EA00B500B600B700CD008301CC008AAF
:103866000192019401210223022402250226022745
:10387600022A02B300B4006F0070009F01CB019FC3
:1038860002A00281828392639364940506363534DE
:0A3896003332313007629161906017
:00000001FF
